:020000040000FA
:100000000C94B0000C94D8000C94D8000C94D80038
:100010000C94D8000C94D8000C94D8000C94D80000
:100020000C94D8000C94D8000C94D8000C94D800F0
:100030000C94D8000C94D8000C94D8000C94D800E0
:100040000C9470080C94D8000C943E080C9418087A
:100050000C94D8000C94D8000C94D8000C94D800C0
:100060000C94D8000C94D800000000002500280053
:100070002B0000000000240027002A0000000000E0
:1000800023002600290004040404040404040202DA
:100090000202020203030303030301020408102007
:1000A0004080010204081020010204081020000012
:1000B0000008000201000003040700000000000027
:1000C00000005741524E494E473A20436F6D6D75BF
:1000D0006E69636174696F6E206661696C757265C3
:1000E0002C20697320746865204D465243353232A6
:1000F0002070726F7065726C7920636F6E6E6563CD
:100100007465643F00203D2028756E6B6E6F776EBE
:100110002900203D20636F756E7465726665697491
:10012000206368697000203D2076322E3000203D2B
:100130002076312E3000203D2076302E3000203DBC
:100140002028636C6F6E6529004669726D77617255
:10015000652056657273696F6E3A20307800BA0870
:1001600011241FBECFEFD8E0DEBFCDBF21E0ACE34E
:10017000B1E001C01D92AC3FB207E1F711E0A0E091
:10018000B1E0E0ECFBE102C005900D92AC33B107A9
:10019000D9F710E0C0EBD0E004C02197FE010E9427
:1001A000E60BCF3AD107C9F70E94F1080C94DE0D97
:1001B0000C9400008CBD9DBD0895AF92BF92CF926C
:1001C000DF92EF92FF920F931F93CF93DF936C0117
:1001D0007B018B01040F151FEB015E01AE18BF08F8
:1001E000C017D10759F06991D601ED91FC910190AA
:1001F000F081E02DC6010995892B79F7C501DF91C2
:10020000CF911F910F91FF90EF90DF90CF90BF9013
:10021000AF900895FC01538D448D252F30E0842F3D
:1002200090E0821B930B541710F0CF96089501971E
:100230000895FC01918D828D981761F0A28DAE0F0B
:10024000BF2FB11D5D968C91928D9F5F9F73928F92
:1002500090E008958FEF9FEF0895FC01918D828DBE
:10026000981731F0828DE80FF11D858D90E008958B
:100270008FEF9FEF0895FC01918D228D892F90E0E3
:10028000805C9F4F821B91098F73992708958BE49F
:1002900091E00E943B0121E0892B09F420E0822FAC
:1002A000089580E090E0892B29F00E944701811198
:1002B0000C9400000895FC01A48DA80FB92FB11D66
:1002C000A35ABF4F2C91848D90E001968F7399278C
:1002D000848FA689B7892C93A089B1898C9183706A
:1002E00080648C93938D848D981306C00288F38963
:1002F000E02D80818F7D80830895EF92FF920F9390
:100300001F93CF93DF93EC0181E0888F9B8D8C8DC1
:1003100098131AC0E889F989808185FF15C09FB7B5
:10032000F894EE89FF896083E889F9898081837078
:10033000806480839FBF81E090E0DF91CF911F9127
:100340000F91FF90EF900895F62E0B8D10E00F5F48
:100350001F4F0F731127E02E8C8D8E110CC00FB61E
:1003600007FCFACFE889F989808185FFF5CFCE01B6
:100370000E945B01F1CFEB8DEC0FFD2FF11DE35AD5
:10038000FF4FF0829FB7F8940B8FEA89FB89808139
:100390008062CFCF0F931F93CF93DF938C01D0E078
:1003A000C0E0F801EC0FFD1F6491662341F08BE47F
:1003B00091E00E947D01892B11F02196F2CFCE01B0
:1003C000DF91CF911F910F910895CF93DF93EC01AF
:1003D000888D8823B9F0AA89BB89E889F9898C912D
:1003E00085FD03C0808186FD0DC00FB607FCF7CFE9
:1003F0008C9185FFF2CF808185FFEDCFCE010E94E9
:100400005B01E9CFDF91CF910895833081F028F42B
:10041000813099F08230A9F008958730A9F08830B2
:10042000C9F08430B1F4809180008F7D03C0809149
:1004300080008F7780938000089584B58F7784BD86
:10044000089584B58F7DFBCF8091B0008F77809326
:10045000B00008958091B0008F7DF9CF1F93CF93A6
:10046000DF93282F30E0F901E255FF4F8491F90125
:10047000E656FF4FD491F901EA57FF4FC491CC23C0
:10048000A9F0162F81110E940502EC2FF0E0EE0F6B
:10049000FF1FE859FF4FA591B4918FB7F894EC91E5
:1004A000111108C0D095DE23DC938FBFDF91CF916F
:1004B0001F910895DE2BF8CFCF93DF9390E0FC01DE
:1004C000E656FF4F24918A579F4FFC018491882361
:1004D000D1F090E0880F991FFC01EE58FF4FA591D5
:1004E000B491FC01E859FF4FC591D49161110EC040
:1004F0009FB7F8948C91E22FE0958E238C932881FE
:10050000E223E8839FBFDF91CF9108958FB7F894DE
:10051000EC91E22BEC938FBFF6CF3FB7F89480912C
:10052000410190914201A0914301B091440126B54F
:10053000A89B05C02F3F19F00196A11DB11D3FBF1B
:10054000BA2FA92F982F8827BC01CD01620F711DEA
:10055000811D911D42E0660F771F881F991F4A95E4
:10056000D1F708958F929F92AF92BF92CF92DF9270
:10057000EF92FF920E948D024B015C0182E3C82E34
:10058000D12CE12CF12C0E948D02681979098A097D
:100590009B09683E734081059105A8F321E0C21ACA
:1005A000D108E108F10888EE880E83E0981EA11CAE
:1005B000B11CC114D104E104F10429F7FF90EF90BC
:1005C000DF90CF90BF90AF909F908F900895BC0127
:1005D0006E5F7F4FDC01ED91FC910190F081E02D89
:1005E00040E0099591E0811190E0892F08950895E8
:1005F0008EBD00000DB407FEFDCF8EB50895DF92CD
:10060000EF92FF920F931F93CF93DF937C01062FFE
:10061000D42E152F80E590E00E94DA0060E0F7010B
:1006200086850E942E0282E10E94F802CD2DD12FF4
:100630000C0F1D2F111DC017D10721F089910E94A9
:10064000F802F9CF61E0F7018685DF91CF911F9124
:100650000F91FF90EF90DF900C942E021F93CF9399
:10066000DF93EC01162F80E590E00E94DA0060E055
:100670008E850E942E02812F80680E94F80280E001
:100680000E94F802182F61E08E850E942E02812FB1
:10069000DF91CF911F9108950F931F93CF93DF9315
:1006A000EC01062F142F80E590E00E94DA0060E054
:1006B0008E850E942E02802F0E94F802812F0E94B8
:1006C000F80261E08E85DF91CF911F910F910C941C
:1006D0002E02CF92DF92EF92FF920F931F93CF9350
:1006E000DF93EC016B01142F790140E062E00E947E
:1006F0004C0344E06AE0CE010E944C0340E864E110
:10070000CE010E944C03A601612FCE010E94FF0280
:1007100043E062E0CE010E944C0308E813E16AE086
:10072000CE010E942E0382FF1BC040E062E0CE019A
:100730000E944C0364E4CE010E942E03F7018083E3
:1007400062E4CE010E942E03F701818380E0DF91F5
:10075000CF911F910F91FF90EF90DF90CF90089570
:1007600001501109E1F683E0F2CF3F924F925F9280
:100770006F927F928F929F92AF92BF92CF92DF92B1
:10078000EF92FF920F931F93CF93DF9300D0CDB7DB
:10079000DEB74C012B01D42E390180E0E114F104C5
:1007A00011F0F7018081BC2CB29490EFB922B80E01
:1007B00040E062E0C4010E944C034FE768E0C401DE
:1007C0000E944C0340E864E1C4010E944C03A20172
:1007D0006D2DC4010E94FF024B2D6AE1C4010E94ED
:1007E0004C034CE062E0C4010E944C036AE1C40186
:1007F0000E942E03482F40686AE1C4010E944C0306
:1008000020ED422E27E0522E68E0C4010E942E0304
:10081000982F907309F0B6C080FD04C0F1E04F1A24
:10082000510891F783E094C06114710409F46DC01C
:100830000115110509F469C064E1C4010E942E0389
:10084000B82EF80180818B1508F496C0B082BB20C9
:10085000E1F180E590E00E94DA0060E0F401868535
:100860000E942E02BA9482E90E94F802CC20B1F0D4
:100870008FEF90E09C0102C0220F331FCA94E2F771
:10088000690182E90E94F8029C2D9095F301208174
:1008900092238C21982B9083CC24C39423014C0C5D
:1008A000511CCB1440F482E90E94F802F2018193BA
:1008B0002F01C394F6CF80E00E94F802F2018083FA
:1008C00061E0F40186850E942E0268E1C4010E9465
:1008D0002E038770E114F10411F0F701808333FCDB
:1008E0004DC06114710409F44BC00115110509F4E0
:1008F00047C0AA2009F444C0F8014081413039F4CE
:10090000843009F049C08FEF23C080E0E8CF423047
:1009100008F442C0811140C042509E012F5F3F4FFA
:10092000B301C4010E946903811112C0F8019081D2
:10093000690E711CF30132972081998129132CC013
:10094000F1E06F1A7108F30120819A81291324C004
:100950000F900F90DF91CF911F910F91FF90EF902B
:10096000DF90CF90BF90AF909F908F907F906F90CF
:100970005F904F903F90089584E0EACF82E0E8CF07
:1009800080E0E6CF6CE0C4010E942E03382E837114
:1009900009F44ACF81E0DCCF87E0DACF4F925F9253
:1009A0006F927F928F929F92AF92CF92EF92FF922F
:1009B0000F931F93CF93DF9300D0CDB7DEB726E21E
:1009C0002A83FA0120812230C0F14A012B013C0127
:1009D0006CE10E942E03482F4F776CE1C3010E9407
:1009E0004C0387E08983A12CC12CCE0101967C01A8
:1009F0008401920141E0BE016E5F7F4FC3010E94FE
:100A0000B503811109C0F40180818230C1F481E015
:100A10009981911101C080E00F900F90DF91CF91EB
:100A20001F910F91FF90EF90CF90AF909F908F907C
:100A30007F906F905F904F90089584E0EDCF81E0BC
:100A4000EBCF0F931F93CF93DF9300D01F92CDB7BF
:100A5000DEB78C0182E08B8340E064E2C8010E9433
:100A60004C0340E066E2C8010E944C0346E268E4A1
:100A7000C8010E944C03AE014D5F5F4FBE016F5F26
:100A80007F4FC8010E94CE04982F9D7F81E009F01E
:100A900080E00F900F900F90DF91CF911F910F91F9
:100AA00008952F923F924F925F926F927F928F9212
:100AB0009F92AF92BF92CF92DF92EF92FF920F93ED
:100AC0001F93CF93DF93CDB7DEB72D970FB6F89472
:100AD000DEBF0FBECDBF16E0413508F04AC1342E4F
:100AE0003B014C016CE10E942E03482F4F776CE1D3
:100AF000C4010E944C0383E98983332029F081E0FB
:100B0000F3019081953008F480E022242394B12CE5
:100B10009B2D990F990F990FD32CD91AD7FCD12C53
:100B200032E0882319F098E89B8333E021E09D2D83
:100B3000977009F420E09D2D959595959595290F31
:100B4000C9F094E0811193E0291708F4922FEB2D5E
:100B5000F0E03196E60DF71D232F4191A1E0B0E0C2
:100B6000AC0FBD1FA20FB11D4C932F5F422F431B33
:100B7000491798F3882311F0F8E0DF0E8FE18D1507
:100B80000CF082C090E79A838B819C8189279D819C
:100B900089279E8189278F839E01285F3F4F47E0E9
:100BA000BE016F5F7F4FC4010E946903182F81113E
:100BB000E0C01A86E3E0EB87DC86CE0107962C01C5
:100BC00099E09D87CA844C2D4295407F4C0D6AE187
:100BD000C4010E944C03A12CCE010A967C018E0117
:100BE000055F1F4F92014D85BE016F5F7F4FC401AE
:100BF0000E94B503182F823009F065C06CE1C40172
:100C00000E942E0385FDB5C08F7109F480E2282F64
:100C100030E04D2DDD0C550B421753070CF09DC0F5
:100C2000D82EE82FE595E595E595EF5F982F97701D
:100C300081E009F480E0E80F81E090E08C0F9D1FD7
:100C40008E0F911DFC01215031092770332781E05F
:100C500090E002C0880F991F2A95E2F79C018081DD
:100C6000822B80838BCF85E98983332031F081E02B
:100C7000F3019081983008F04BCF80E049CF87E9AD
:100C8000898326E0B22EF9CF9D2D97709A878D2DFE
:100C90008595859585958E5F282F2295207F290F34
:100CA0002A8321E0911101C020E0280F2D874424E0
:100CB0004394512C4C0E5D1E480E511CE9E0E81B7C
:100CC000EB87DC867FCF811154C080E2D82E9C85D3
:100CD00090320CF457CF8B81883809F040C083E004
:100CE00093E0EB2DF0E03196E60DF71D980FA1E0B3
:100CF000B0E0AC0FBD1FA80FB11D2C9121938F5FE9
:100D00008913F5CFBB84E3E0BE124DC08A85811103
:100D10004AC09E012D5F3F4F41E0B201C4010E94D5
:100D20006903182F811125C09B81F20181819813DD
:100D30003CC09C818281981338C0808182FF12C0A0
:100D40002394F2E02F1609F48ECF83E0281609F4DD
:100D500096CF91E0291609F4CECE15E00AC082E0C4
:100D600094E0BFCFF3018387822D880F820D8F5FC0
:100D70008083812F2D960FB6F894DEBF0FBECDBFB6
:100D8000DF91CF911F910F91FF90EF90DF90CF9067
:100D9000BF90AF909F908F907F906F905F904F909B
:100DA0003F902F90089511E0E4CF17E0E2CF8F92AB
:100DB0009F92AF92BF920F931F93CF93DF93CDB7C4
:100DC000DEB7A1970FB6F894DEBF0FBECDBF19A254
:100DD000423008F44AE08E010F5D1F4F842E912CA3
:100DE000B12CA12CA50194010E94C40BE62FB901DE
:100DF000CA01EA3044F5E05DD801EE938D01232B62
:100E0000242B252B79F790E080E0109769F0FD0105
:100E100001900020E9F73197AF014A1B5B0BBD0140
:100E20008BE491E00E94DD00A1960FB6F894DEBF3E
:100E30000FBECDBFDF91CF911F910F91BF90AF90AB
:100E40009F908F900895E95CD7CF42E050E062E236
:100E500071E08BE491E00C94DD00CF93DF930E946E
:100E6000CA01EC010E9425078C0F9D1FDF91CF91D5
:100E70000895FC0180819181009711F00C94880CF9
:100E800008950F931F93CF93DF93EC01888199818D
:100E9000009759F02A813B812617370730F081E00F
:100EA000DF91CF911F910F9108958B016F5F7F4F5D
:100EB0000E94110D009759F0998388831B830A8340
:100EC0002C813D81232B59F7FC011082E8CF80E073
:100ED000E7CFEF92FF920F931F93CF93DF936115AC
:100EE000710541F480E0DF91CF911F910F91FF9048
:100EF000EF90089541155105B1F07B01EC010C8193
:100F00001D81040F151FB8010E944107882351F36A
:100F1000288139818C819D81B701820F931F0E94A6
:100F2000D70D1D830C8381E0DECFEF92FF920F93EC
:100F30001F93CF93DF93EC017B018A01BA010E94DA
:100F4000410728813981811114C02115310519F01B
:100F5000C9010E94880C198218821D821C821B8282
:100F60001A82CE01DF91CF911F910F91FF90EF90E8
:100F700008951D830C83B701C9010E94D70DF1CFDD
:100F8000FC01118210821382128215821482FB01ED
:100F900001900020E9F73197AF01461B570B0C94E5
:100FA00095070F931F93CF93DF9300D000D000D00D
:100FB000CDB7DEB78C014AE065E070E080E090E0FC
:100FC0000E94D70665E271E0CE0101960E94C0073B
:100FD000F8014481558160817181CE0101960E94A2
:100FE000690781110CC089819A81009711F00E94D4
:100FF000880C1A8219821E821D821C821B824D81DE
:101000005E8169817A818BE491E00E94DD000E941B
:101010002507CE0101960E94390726960FB6F8944F
:10102000DEBF0FBECDBFDF91CF911F910F9108950D
:101030001F920F920FB60F9211242F933F934F934D
:101040005F936F937F938F939F93AF93BF93EF9330
:10105000FF938BE491E00E945B01FF91EF91BF91C0
:10106000AF919F918F917F916F915F914F913F9140
:101070002F910F900FBE0F901F9018951F920F92F7
:101080000FB60F9211242F938F939F93EF93FF939B
:10109000E0915B01F0915C018081E0916101F09150
:1010A000620182FD1BC09081809164018F5F8F730C
:1010B00020916501821741F0E0916401F0E0E55B69
:1010C000FE4F958F80936401FF91EF919F918F91D7
:1010D0002F910F900FBE0F901F9018958081F4CF25
:1010E0001F920F920FB60F9211242F933F938F935D
:1010F0009F93AF93BF9380913D0190913E01A0914A
:101100003F01B091400130913C0123E0230F2D3786
:1011100058F50196A11DB11D20933C0180933D011E
:1011200090933E01A0933F01B09340018091410113
:1011300090914201A0914301B09144010196A11DFB
:10114000B11D8093410190934201A0934301B0935C
:101150004401BF91AF919F918F913F912F910F903B
:101160000FBE0F901F90189526E8230F0296A11D21
:10117000B11DD2CFEBE4F1E01382128288EE93E04E
:10118000A0E0B0E084839583A683B7838AE091E0F2
:101190009183808385EC90E09587848784EC90E050
:1011A0009787868780EC90E0918B808B81EC90E034
:1011B000938B828B82EC90E0958B848B86EC90E015
:1011C000978B868B118E128E138E148EE8EEF1E0C3
:1011D0008CE191E09183808383E0868789E0878733
:1011E0000895CF93DF93CDB7DEB768970FB6F89425
:1011F000DEBF0FBECDBF789484B5826084BD84B558
:10120000816084BD85B5826085BD85B5816085BD01
:1012100080916E00816080936E00109281008091B9
:101220008100826080938100809181008160809341
:101230008100809180008160809380008091B10066
:1012400084608093B1008091B00081608093B00091
:1012500080917A00846080937A0080917A00826025
:1012600080937A0080917A00816080937A008091E7
:101270007A00806880937A001092C100E0915B014F
:10128000F0915C0182E08083E0915701F091580178
:101290001082E0915901F0915A0180E1808310920F
:1012A0006301E0915F01F091600186E08083E0914D
:1012B0005D01F0915E01808180618083E0915D013C
:1012C000F0915E01808188608083E0915D01F09102
:1012D0005E01808180688083E0915D01F0915E0114
:1012E00080818F7D80831FB7F894809145018111A3
:1012F00027C0E0E9F0E08491E4EAF0E09491E82F7F
:10130000F0E0EE0FFF1FEE58FF4FA591B491EC9166
:10131000E92321F461E08AE00E942E0261E08AE084
:101320000E945C028CB580618CBD8CB580648CBDE4
:1013300061E08DE00E945C0261E08BE00E945C0253
:10134000809145018F5F809345011FBF61E08091CF
:10135000F6010E945C0261E08091F6010E942E027B
:101360008091F7018F3F09F49FC060E00E945C020A
:101370002091F70130E0F901E255FF4F8491F90126
:10138000E656FF4F0491F901EA57FF4F14911111EE
:101390007CC061E08091F7010E945C0260E0809176
:1013A000F7010E942E0283E090E00197F1F761E0DF
:1013B0008091F7010E942E020E94B20240E064E296
:1013C00088EE91E00E944C0340E066E288EE91E0F6
:1013D0000E944C0346E268E488EE91E00E944C03D0
:1013E00040E864E588EE91E00E944C0349EA66E536
:1013F00088EE91E00E944C0343E068E588EE91E0BE
:101400000E944C0348EE6AE588EE91E00E944C038E
:1014100040E46AE288EE91E00E944C034DE362E210
:1014200088EE91E00E944C0368E288EE91E00E9411
:101430002E03982F9370933039F0482F436068E261
:1014400088EE91E00E944C036EE688EE91E00E94E7
:101450002E03182F89E491E00E94CA01612F70E0E9
:1014600090E080E040E10E94D70686E391E01039E9
:10147000B1F168F582E191E0123189F18EE391E0FA
:10148000183869F185E091E02AC081110E940502B7
:10149000E12FF0E0EE0FFF1FE458FF4FA591B4914C
:1014A000EC910E2309F475CF4FE062E088EE91E0F5
:1014B0000E944C0313E00E94B20262E088EE91E0C9
:1014C0000E942E0384FF7ACF1150A9F777CF8EE2C6
:1014D00091E0113921F086E291E0123999F60E94EB
:1014E0002D0711501E3F20F082EC90E00E942D0746
:1014F0008E010F5F1F4F92E0B92EAA24A39420E023
:10150000C22E20E0D22E80914A0180934901809121
:1015100047019091480101969093480180934701BB
:10152000039714F010924601B88E40E064E288EE12
:1015300091E00E944C0340E066E288EE91E00E9458
:101540004C0346E268E488EE91E00E944C03AE0151
:10155000485E5F4FBE016A5E7F4F88EE91E00E9459
:10156000CE0481110DC088EE91E00E94E70288232D
:1015700009F49DC01092480110924701A0924601C3
:101580008091460180934A01882309F47DC08091AF
:101590004901811179C069E271E0C8010E94C00768
:1015A000C8010E94D107C8010E94390764E271E0B6
:1015B000CE0140960E94C00788EEE82E81E0F82E0A
:1015C0002091EA01C701885E91402817190609F0A9
:1015D0000CF440C0F701838164E271E0803110F4C3
:1015E00067E271E0C8010E94C0074D815E81698198
:1015F0007A81CE0140960E946907C8010E9439078E
:10160000F70183811B861A861D861C861F861E860F
:1016100040E1B80190E00E94630BF80101900020C6
:10162000E9F73197AF01401B510BB801CE010A9683
:101630000E9495074E855F856A857B85CE01409621
:101640000E946907CE010A960E943907FFEFEF1A40
:10165000FF0AB6CF1A8219821C821B821E821D824B
:10166000688979896115710529F04C895D89C801FE
:101670000E949507C8010E94D107C8010E9439073E
:10168000CE0140960E94390780914A0181110FC016
:1016900080914901882359F063E371E0C8010E94F9
:1016A000C007C8010E94D107C8010E943907C114B0
:1016B000D10409F428CF0E944701882309F41BCFE5
:1016C0000E94000018CFBB27FB015527AA27880FCF
:1016D000991FAA1FA41710F0A41B83955051B9F7A6
:1016E000A05DAA3308F0A95DA193009779F7B11125
:1016F000B1931192CB010C947D0BDC01FC01672F9F
:1017000071917723E1F7329704C07C916D937083D8
:101710006291AE17BF07C8F308952F923F924F9280
:101720005F926F927F928F929F92AF92BF92CF9271
:10173000DF92EF92FF920F931F93CF93DF93CDB77A
:10174000DEB7CA1BDB0B0FB6F894DEBF0FBECDBFF2
:1017500009942A88398848885F846E847D848C84C3
:101760009B84AA84B984C884DF80EE80FD800C81CC
:101770001B81AA81B981CE0FD11D0FB6F894DEBFAF
:101780000FBECDBFED010895A1E21A2EAA1BBB1B0F
:10179000FD010DC0AA1FBB1FEE1FFF1FA217B3073D
:1017A000E407F50720F0A21BB30BE40BF50B661F53
:1017B000771F881F991F1A9469F760957095809517
:1017C00090959B01AC01BD01CF010895EE0FFF1F65
:1017D0000590F491E02D09940F931F93CF93DF931D
:1017E0008230910510F482E090E0E091FA01F091EE
:1017F000FB0130E020E0B0E0A0E0309799F4211543
:10180000310509F44AC0281B390B24303105D8F5BD
:101810008A819B816115710589F1FB019383828324
:10182000FE0111C04081518102811381481759077F
:10183000E0F04817590799F4109761F012960C934D
:10184000129713961C933296CF01DF91CF911F917F
:101850000F9108950093FA011093FB01F4CF211525
:10186000310551F04217530738F0A901DB019A0105
:10187000BD01DF01F801C1CFEF01F9CF9093FB016A
:101880008093FA01CDCFFE01E20FF31F8193919374
:101890002250310939832883D7CF2091F801309124
:1018A000F901232B41F4209102013091030130937F
:1018B000F9012093F80120910001309101012115D7
:1018C000310541F42DB73EB7409104015091050117
:1018D000241B350BE091F801F091F901E217F307B1
:1018E000A0F42E1B3F0B2817390778F0AC014E5F90
:1018F0005F4F2417350748F04E0F5F1F5093F901D3
:101900004093F801819391939FCFF0E0E0E09CCF6A
:10191000CF93DF930097E9F0FC0132971382128294
:10192000A091FA01B091FB01ED0130E020E01097A9
:10193000A1F420813181820F931F2091F801309111
:10194000F9012817390709F061C0F093F901E09314
:10195000F801DF91CF910895EA01CE17DF07E8F58E
:101960004A815B819E0141155105B1F7E901FB8375
:10197000EA8349915991C40FD51FEC17FD0761F413
:10198000808191810296840F951FE9019983888354
:10199000828193819B838A83F0E0E0E012968D91AF
:1019A0009C9113970097B9F52D913C911197CD011A
:1019B0000296820F931F2091F8013091F9012817A8
:1019C000390739F6309751F51092FB011092FA0160
:1019D000B093F901A093F801BCCFD383C2834081B7
:1019E0005181840F951FC817D90761F44E5F5F4F6F
:1019F00088819981480F591F518340838A819B8137
:101A0000938382832115310509F0B0CFF093FB0158
:101A1000E093FA019ECFFD01DC01C0CF1382128258
:101A2000D7CFB0E0A0E0E7E1FDE00C948F0B8C0194
:101A3000009751F4CB010E94EC0B8C01C801CDB78B
:101A4000DEB7E0E10C94AB0BFC01E60FF71F9C0145
:101A500022503109E217F30708F49DC0D901CD9156
:101A6000DC911197C617D70798F0C530D10530F330
:101A7000CE0104978617970708F3C61BD70B22974A
:101A8000C193D1936D937C93CF010E94880CD6CFE4
:101A90005B01AC1ABD0A4C018C0E9D1EA091FA018F
:101AA000B091FB01512C412CF12CE12C109731F518
:101AB0008091F8019091F9018815990509F05CC0B1
:101AC0004616570608F058C0809100019091010118
:101AD000009741F48DB79EB74091040150910501E4
:101AE000841B950BE817F90708F055C0F093F9012E
:101AF000E093F801F90171836083A0CF8D919C91EF
:101B0000119712966C90129713967C901397A815C4
:101B1000B90559F56C0142E0C40ED11CCA14DB04AE
:101B200020F1AC014A195B09DA011296159780F091
:101B30006282738251834083D9016D937C93E11457
:101B4000F10471F0D7011396FC93EE93129776CFC0
:101B500022968C0F9D1FF90191838083F301EFCFB3
:101B6000F093FB01E093FA0169CF4816590608F497
:101B70002C017D01D3019ACFCB010E94EC0B7C019B
:101B8000009749F0AE01B8010E94CE0DC8010E9435
:101B9000880C870153CF10E000E050CFFB01DC013F
:101BA00002C001900D9241505040D8F70895FB01BA
:101BB000DC0101900D920020E1F70895F894FFCF29
:101BC0000000FC018000000000007D01DD000A0132
:101BD000E5013B0119012D0100000000510521051F
:101BE000E7020D0A003A0030005441475F464F5566
:0C1BF0004E44005441475F474F4E4500F3
:107800000C94343C0C94513C0C94513C0C94513CE1
:107810000C94513C0C94513C0C94513C0C94513CB4
:107820000C94513C0C94513C0C94513C0C94513CA4
:107830000C94513C0C94513C0C94513C0C94513C94
:107840000C94513C0C94513C0C94513C0C94513C84
:107850000C94513C0C94513C0C94513C0C94513C74
:107860000C94513C0C94513C11241FBECFEFD8E036
:10787000DEBFCDBF11E0A0E0B1E0ECE9FFE702C060
:1078800005900D92A230B107D9F712E0A2E0B1E065
:1078900001C01D92AD30B107E1F70E942D3D0C945F
:1078A000CC3F0C94003C982F959595959595959582
:1078B000905D8F708A307CF0282F295A8091C0000B
:1078C00085FFFCCF9093C6008091C00085FFFCCF60
:1078D0002093C6000895282F205DF0CF982F809127
:1078E000C00085FFFCCF9093C6000895EF92FF92F1
:1078F0000F931F93EE24FF2487018091C00087FD22
:1079000017C00894E11CF11C011D111D81E4E8164B
:1079100082E4F8068FE0080780E0180770F3E09132
:107920000401F091050109958091C00087FFE9CF1E
:107930008091C6001F910F91FF90EF9008950E94D3
:10794000763C982F8091C00085FFFCCF9093C600B5
:1079500091362CF490330CF09053892F089597555D
:10796000892F08951F930E949F3C182F0E949F3CCF
:107970001295107F810F1F9108951F93182F882350
:1079800021F00E94763C1150E1F71F9108951F935A
:10799000182F0E94763C803249F0809103018F5F5E
:1079A000809303018530C1F01F9108958091C0003C
:1079B00085FFFCCF84E18093C6008091C00085FFE5
:1079C000FCCF1093C6008091C00085FFFCCF80E102
:1079D0008093C6001F910895E0910401F091050184
:1079E00009951F9108950E94763C803241F0809164
:1079F00003018F5F80930301853081F008958091AA
:107A0000C00085FFFCCF84E18093C6008091C00058
:107A100085FFFCCF80E18093C6000895E0910401CA
:107A2000F09105010995089540E951E08823A1F0FE
:107A30002D9A28EE33E0FA013197F1F721503040CA
:107A4000D1F72D9828EE33E0FA013197F1F7215064
:107A50003040D1F7815061F708953F924F925F9285
:107A60006F927F928F929F92AF92BF92CF92DF924E
:107A7000EF92FF920F931F93CF93DF93000080E16B
:107A80008093C4001092C50088E18093C10086E015
:107A90008093C2005098589A259A81E00E94143D24
:107AA00024E1F22E9EE1E92E85E9D82E0FE0C02ECA
:107AB00010E1B12EAA24A394B1E49B2EA6E58A2E50
:107AC000F2E57F2EE0E26E2E79E4572E63E5462E36
:107AD00050E5352E0E94763C8033B1F18133B9F107
:107AE000803409F46FC0813409F476C0823409F41B
:107AF00085C0853409F488C0803531F1823521F1A3
:107B0000813511F1853509F485C0863509F48DC0BC
:107B1000843609F496C0843709F403C1853709F423
:107B200072C1863709F466C0809103018F5F80932C
:107B30000301853079F6E0910401F0910501099582
:107B40000E94763C803351F60E94F33CC3CF0E94E2
:107B5000763C803249F78091C00085FFFCCFF092DF
:107B6000C6008091C00085FFFCCF9092C600809136
:107B7000C00085FFFCCF8092C6008091C00085FFC9
:107B8000FCCF7092C6008091C00085FFFCCF609250
:107B9000C6008091C00085FFFCCF5092C600809146
:107BA000C00085FFFCCF4092C6008091C00085FFD9
:107BB000FCCF3092C6008091C00085FFFCCFB09210
:107BC000C60088CF0E94763C863808F4BDCF0E945C
:107BD000763C0E94F33C7ECF0E94763C803809F4CC
:107BE0009CC0813809F40BC1823809F43CC1883942
:107BF00009F48FC080E00E94C73C6CCF84E10E94F2
:107C0000BD3C0E94F33C66CF85E00E94BD3C0E94D3
:107C1000F33C60CF0E94763C809306010E94763C44
:107C2000809307010E94F33C55CF0E94763C80333D
:107C300009F41DC183E00E94BD3C80E00E94C73C66
:107C400049CF0E94763C809309020E94763C809343
:107C5000080280910C028E7F80930C020E94763C79
:107C6000853409F415C18091080290910902892B8D
:107C700089F000E010E00E94763CF801E85FFE4FDA
:107C800080830F5F1F4F80910802909109020817AF
:107C9000190788F30E94763C803209F045CF809125
:107CA0000C0280FF01C16091060170910701660F0F
:107CB000771F7093070160930601A0910802B091AD
:107CC00009021097C9F0E8E0F1E09B01AD014E0F09
:107CD0005F1FF999FECF32BD21BD819180BDFA9A17
:107CE000F99A2F5F3F4FE417F50799F76A0F7B1F4B
:107CF00070930701609306018091C00085FFFCCF5F
:107D0000F092C6008091C00085FFFCCFB092C60003
:107D1000E1CE83E00E94C73CDDCE82E00E94C73CFA
:107D2000D9CE0E94763C809309020E94763C8093D3
:107D300008028091060190910701880F991F909386
:107D40000701809306010E94763C853409F4A6C0A1
:107D500080910C028E7F80930C020E94763C8032D0
:107D600009F0B8CE8091C00085FFFCCFF092C6002C
:107D7000609108027091090261157105B9F140E046
:107D800050E080910C02A82FA170B82FB27011C0E2
:107D9000BB2309F45CC0E0910601F0910701319624
:107DA000F0930701E09306014F5F5F4F46175707B7
:107DB000E8F4AA2369F3F999FECF209106013091E6
:107DC000070132BD21BDF89A90B58091C00085FFB2
:107DD000FCCF9093C6002F5F3F4F30930701209355
:107DE00006014F5F5F4F4617570718F38091C00099
:107DF00085FDE5CE8091C00085FFF8CFE0CE81E023
:107E00000E94C73C67CE0E94763C803209F08CCE3F
:107E10008091C00085FFFCCFF092C6008091C00029
:107E200085FFFCCFE092C6008091C00085FFFCCFAB
:107E3000D092C6008091C00085FFFCCFC092C600E2
:107E40008091C00085FFFCCFB092C60043CEE09188
:107E50000601F091070194918091C00085FFFCCF4D
:107E60009093C6009CCF80E10E94C73C33CE0E9415
:107E7000763C0E94763C182F0E94763C112309F430
:107E800083C0113009F484C08FE00E94C73C22CE29
:107E900080910C02816080930C02E5CE80910C02EF
:107EA000816080930C0259CF809107018823880F4D
:107EB000880B8A2180930B02809106019091070123
:107EC000880F991F90930701809306018091080203
:107ED00080FF09C080910802909109020196909359
:107EE000090280930802F894F999FECF1127E091D6
:107EF0000601F0910701C8E0D1E08091080290915D
:107F00000902103091F40091570001700130D9F34B
:107F100003E000935700E89500915700017001308D
:107F2000D9F301E100935700E89509901990009169
:107F3000570001700130D9F301E000935700E89534
:107F40001395103498F011270091570001700130FB
:107F5000D9F305E000935700E895009157000170B0
:107F60000130D9F301E100935700E895329602976A
:107F700009F0C7CF103011F00296E5CF112480919F
:107F8000C00085FFB9CEBCCE8EE10E94C73CA2CD19
:0E7F900085E90E94C73C9ECDF894FFCF80008B
:00000001FF
